S0110000375F7365676D656E742E737265638A
S11300000C942A000C9449000C945A000C94470058
S11300100C9447000C9447000C9447000C94470040
S11300200C9447000C9447000C9447000C94470030
S11300300C9447000C9447000C9447000C94470020
S11300400C9447000C9447000C9447000C94470010
S11300500C94470011241FBECFE5D8E0DEBFCDBF0E
S113006010E0A0E6B0E0EEE0F4E002C005900D92EE
S1130070AA36B107D9F720E0AAE6B0E001C01D9284
S1130080A137B207E1F70E94B3010C9405020C9466
S113009000001F920F920FB60F9211248F9380913C
S11300A06A00809580936A008F910F900FBE0F9025
S11300B01F9018951F920F920FB60F9211242F9331
S11300C08F939F931092700010926F0010926A00A9
S11300D080E882BB80916000809585BB2FEF80E72C
S11300E092E0215080409040E1F700C000009F91D1
S11300F08F912F910F900FBE0F901F9018958091A4
S11301006F00909170008A309105D4F480E882BB2E
S113011080916F00909170006AE070E00E94DD01B0
S1130120FC01E05AFF4F8081809585BB2FEF40E7AB
S113013082E0215040408040E1F700C00000089573
S11301409C012A5031092935310598F580E882BB94
S113015080916F00909170002AE030E0B9010E9414
S1130160DD01FC01E05AFF4F8081809585BB9FEF44
S113017040E782E0915040408040E1F700C0000039
S113018080E482BB80916F0090917000B9010E945D
S1130190DD01FB01E05AFF4F8081809585BB9FEF15
S11301A020E742E0915020404040E1F700C00000C9
S11301B008959C01245631092338334008F056C071
S11301C080E882BB80916F00909170002AE030E05B
S11301D0B9010E94DD01FC01E05AFF4F8081809546
S11301E085BB8FEF90E742E0815090404040E1F7BB
S11301F000C0000080916F0090917000B9010E94CE
S1130200DD0170936E0060936D0080E482BB809189
S11302106D0090916E00B9010E94DD01FC01E05A6D
S1130220FF4F8081809585BB8FEF90E742E081503E
S113023090404040E1F700C0000080E282BB809122
S11302406D0090916E00B9010E94DD01FB01E05A3E
S1130250FF4F8081809585BB8FEF90E722E081502E
S113026090402040E1F700C000000895883E93408C
S11302700CF478C080E882BB80916F00909170008C
S11302802AE030E0B9010E94DD01FC01E05AFF4F91
S11302908081809585BB8FEF90E742E0815090404C
S11302A04040E1F700C0000080916F009091700021
S11302B0B9010E94DD0170936E0060936D0080E4CB
S11302C082BB80916D0090916E00B9010E94DD01A6
S11302D0FC01E05AFF4F8081809585BB8FEF90E74A
S11302E042E0815090404040E1F700C0000080911E
S11302F06D0090916E00B9010E94DD0170936C0055
S113030060936B0080E282BB80916B0090916C00E3
S1130310B9010E94DD01FC01E05AFF4F8081809504
S113032085BB8FEF90E742E0815090404040E1F779
S113033000C0000080E182BB80916B0090916C0052
S1130340B9010E94DD01FB01E05AFF4F80818095D5
S113035085BB8FEF90E722E0815090402040E1F789
S113036000C00000089580E28ABB8FEF84BB80EF59
S113037081BB8FE085BF80EC8BBF78940E947F00A7
S113038080916A00882391F080916F0090917000B1
S11303900196803127E292072CF4909370008093A9
S11303A06F0004C01092700010926F008FE19EE401
S11303B00197F1F700C00000E1CF97FB072E16F478
S11303C0009407D077FD09D00E94F10107FC05D005
S11303D03EF4909581959F4F0895709561957F4F58
S11303E00895AA1BBB1B51E107C0AA1FBB1FA61778
S11303F0B70710F0A61BB70B881F991F5A95A9F7CA
S111040080959095BC01CD010895F894FFCF2E
S10D040E3F065B4F666D7D077F6FAC
S9030000FC
